:100000000C9458000C9480000C9480000C94800098
:100010000C9480000C9480000C9480000C94800060
:100020000C9480000C9480000C9480000C94800050
:100030000C9480000C9480000C9480000C94800040
:100040000C947F070C9480000C94EF070C94C90764
:100050000C9480000C9480000C9480000C94800020
:100060000C9421080C94800000000000250028005A
:100070002B00040404040404040402020202020229
:10008000030303030303010204081020408001025C
:1000900004081020010204081020000000080002DB
:1000A00001000003040700000000000000004009F8
:1000B00011241FBECFEFD8E0DEBFCDBF11E0A0E01E
:1000C000B1E0E4EDFBE102C005900D92A435B1076B
:1000D000D9F722E0A4E5B1E001C01D92AD3EB20720
:1000E000E1F710E0C8E5D0E004C02197FE010E94CE
:1000F000F00BC735D107C9F70E9487090C94E80DAA
:100100000C94000090E0FC01E656FF4F2491FC01A6
:10011000EA57FF4F3491FC01EE58FF4FE491EE2374
:10012000C9F0222339F0233001F1A8F4213019F16C
:10013000223029F1F0E0EE0FFF1FE859FF4FA591A3
:10014000B4918FB7F894EC91611126C030953E239D
:100150003C938FBF08952730A9F02830C9F0243090
:1001600049F7809180008F7D03C0809180008F7758
:1001700080938000DFCF84B58F7784BDDBCF84B5DB
:100180008F7DFBCF8091B0008F778093B000D2CF6E
:100190008091B0008F7DF9CF3E2BDACF3FB7F89436
:1001A0008091C3019091C401A091C501B091C60195
:1001B00026B5A89B05C02F3F19F00196A11DB11DC2
:1001C0003FBFBA2FA92F982F8827BC01CD01620FFE
:1001D000711D811D911D42E0660F771F881F991FB9
:1001E0004A95D1F7089508950895AF92BF92CF929E
:1001F000DF92EF92FF920F931F93CF93DF936C01E7
:100200007B018B01040F151FEB015E01AE18BF08C7
:10021000C017D10759F06991D601ED91FC91019079
:10022000F081E02DC6010995892B79F7C501DF9191
:10023000CF911F910F91FF90EF90DF90CF90BF90E3
:10024000AF900895FC01538D448D252F30E0842F0D
:1002500090E0821B930B541710F0CF9608950197EE
:100260000895FC01918D828D981761F0A28DAE0FDB
:10027000BF2FB11D5D968C91928D9F5F9F73928F62
:1002800090E008958FEF9FEF0895FC01918D828D8E
:10029000981731F0828DE80FF11D858D90E008955B
:1002A0008FEF9FEF0895FC01918D228D892F90E0B3
:1002B000805C9F4F821B91098F739927089587E176
:1002C00092E00E94530121E0892B09F420E0822F63
:1002D000089580E090E0892B29F00E945F01811150
:1002E0000C9400000895FC01A48DA80FB92FB11D36
:1002F000A35ABF4F2C91848D90E001968F7399275C
:10030000848FA689B7892C93A089B1898C91837039
:1003100080648C93938D848D981306C00288F38932
:10032000E02D80818F7D80830895EF92FF920F935F
:100330001F93CF93DF93EC0181E0888F9B8D8C8D91
:1003400098131AC0E889F989808185FF15C09FB785
:10035000F894EE89FF896083E889F9898081837048
:10036000806480839FBF81E090E0DF91CF911F91F7
:100370000F91FF90EF900895F62E0B8D10E00F5F18
:100380001F4F0F731127E02E8C8D8E110CC00FB6EE
:1003900007FCFACFE889F989808185FFF5CFCE0186
:1003A0000E947301F1CFEB8DEC0FFD2FF11DE35A8D
:1003B000FF4FF0829FB7F8940B8FEA89FB89808109
:1003C0008062CFCFCF93DF93EC01888D8823B9F083
:1003D000AA89BB89E889F9898C9185FD03C0808150
:1003E00086FD0DC00FB607FCF7CF8C9185FFF2CFCD
:1003F000808185FFEDCFCE010E947301E9CFDF91AF
:10040000CF91089520917501260F3327331F213294
:100410003105ECF42091ED01FC0190E080E0243006
:1004200069F082E00895A09175012191AC014B5AC9
:100430005E4FA40FB52FB11D2C930196861798F32C
:1004400080917501680F6093750180E0089581E0E7
:1004500008951092ED0181E08093EC011092C701A4
:1004600061E082E10E94820061E083E10E948200FB
:10047000E9EBF0E080818E7F808380818D7F8083B7
:1004800088E48093B80085E48093BC000895CF93FE
:10049000DF9391E0909354018823B9F0C091B800A4
:1004A000D091BA008091BC008A7B8093BC0060E050
:1004B00082E10E94820060E083E10E9482000E944B
:1004C0002902D093BA00C093B800DF91CF9108956C
:1004D0008F929F92AF92BF92CF92DF92EF92FF9254
:1004E0000F931F93CF93DF93D0911602D13208F070
:1004F000D7C0182FC09115020E94CE006B017C015D
:100500008091ED0181116BC082E08093ED01109329
:10051000EC018FEF8093EB011092EA01D093E90197
:10052000A5EFB1E0E9ECF1E080E0D81391C01092C2
:10053000C8018091C801CC0FC82BC093C80180911D
:10054000C701813009F088C01092C7010E94CE0017
:100550006B017C018091C8018093BB008091EF0109
:100560009091F001A091F101B091F201892B8A2BB9
:100570008B2BA1F00E94CE000091EF011091F001B1
:100580002091F1013091F2016C197D098E099F09CA
:10059000061717072807390708F442C08091BC00E6
:1005A00083FDD8CF85EC8093BC000E94CE006B0108
:1005B0007C018091ED01823009F450C08091EB0103
:1005C0008F3F09F46FC08091EB01803209F46CC059
:1005D0008091EB01803309F469C084E026C08091EA
:1005E000EF019091F001A091F101B091F201892BFE
:1005F0008A2B8B2B09F484CF0E94CE008090EF01D0
:100600009090F001A090F101B090F2016C197D0979
:100610008E099F0986169706A806B90608F070CFBE
:100620008091EE010E94470285E01092F401109241
:1006300016021092F301DF91CF911F910F91FF905D
:10064000EF90DF90CF90BF90AF909F908F900895E4
:100650009D9191938F5F69CF85EEA5CF8091EF013A
:100660009091F001A091F101B091F201892B8A2BB8
:100670008B2B09F49ECF0E94CE000091EF011091C8
:10068000F0012091F1013091F2016C197D098E0980
:100690009F09061717072807390708F08ACFC0CF28
:1006A00081E0C3CF80E0C1CF82E0BFCF83E0BDCF88
:1006B0000F931F93CF93DF938A01E901209711F4E1
:1006C000C4EBD2E091E09093F30180931502109275
:1006D000F40110921602E881F9810190F081E02D79
:1006E000CE010995E881F9810190F081E02DD801D2
:1006F0006C91CE01099581E00E94680291E0811120
:1007000090E0892FDF91CF911F910F910895089567
:10071000E091BD018091BC01E81730F4F0E0E856AB
:10072000FE4F808190E008958FEF9FEF08959091A4
:10073000BD018091BC012FEF3FEF981748F4E92FDE
:10074000F0E0E856FE4F208130E09F5F9093BD01BE
:10075000C90108958091BC019091BD01891B990B3D
:100760000895CF92DF92EF92FF920F931F93CF9352
:10077000DF937C01CB018A012091F301222389F0D0
:10078000EB016B01C40ED51ECC15DD0569F0699136
:10079000D701ED91FC910190F081E02DC701099501
:1007A000F3CF642F0E940202C801DF91CF911F9105
:1007B0000F91FF90EF90DF90CF900895CF93DF934C
:1007C0001F92CDB7DEB769832091F3012223F9F0A0
:1007D00020911602203258F021E030E0FC013383F2
:1007E000228390E080E00F90DF91CF910895809177
:1007F000F401E82FF0E0EB50FE4F998190838F5F7A
:100800008093F4018093160281E090E0ECCF61E0E8
:10081000CE0101960E940202F7CF90E080E0089599
:1008200042E050E06AE271E087E192E00C94F5006A
:10083000CF93DF93FC0101900020E9F73197AF01DE
:10084000481B590BBC0187E192E00E94F500EC01C6
:100850000E9410048C0F9D1FDF91CF9108950F937C
:100860001F93CF93DF93EC0188819981009759F012
:100870002A813B812617370730F081E0DF91CF9145
:100880001F910F9108958B016F5F7F4F0E941B0D89
:10089000009759F0998388831B830A832C813D81BB
:1008A000232B59F7FC011082E8CF80E0E7CFCF93EC
:1008B000DF93EC0188819981009711F00E94920CDE
:1008C000198218821D821C821B821A82DF91CF91AD
:1008D00008950F931F93CF93DF93EC010C811D813B
:1008E0000F5F1F4FB8010E942F04882391F02881C9
:1008F00039818C819D816DE271E0820F931F0E948E
:10090000E10D1D830C83CE01DF91CF911F910F91DB
:100910000895CE010E945704F6CFCF92DF92EF9256
:10092000FF920F931F93CF93DF93CDB7DEB76297FC
:100930000FB6F894DEBF0FBECDBF8C01CB01F8011E
:100940001182108213821282158214824AE09E0163
:100950002F5F3F4F6901B9010E94840BF60101909E
:100960000020E9F731977F01EC18FD08B701C801B5
:100970000E942F04811112C0C8010E945704629680
:100980000FB6F894DEBF0FBECDBFDF91CF911F91A0
:100990000F91FF90EF90DF90CF900895F801F582CE
:1009A000E482B601808191810E94E10DE8CFEF924F
:1009B000FF920F931F93CF93DF93EC01FB01E08035
:1009C000F180E114F10411F1048115810115110583
:1009D000A9F08C819D81080F191FB801CE010E94DA
:1009E0002F04882399F0288139818C819D81B7015A
:1009F000820F931F0E94E10D1D830C83CE01DF91B6
:100A0000CF911F910F91FF90EF900895CE010E941A
:100A10005704F4CFFC0180819181009711F00C9470
:100A2000920C0895EF92FF920F931F93CF93DF9351
:100A3000EC01198218821B821A821D821C82861781
:100A4000970719F1FB010081118101151105E9F0EA
:100A5000E480F580B7010E942F04811109C0CE0106
:100A6000DF91CF911F910F91FF90EF900C9457045D
:100A7000FD82EC82B80188819981DF91CF911F912D
:100A80000F91FF90EF900C94E10DDF91CF911F91AA
:100A90000F91FF90EF9008952F923F924F925F92A7
:100AA0006F927F928F929F92AF92BF92CF92DF927E
:100AB000EF92FF920F931F93CF93DF93CDB7DEB7E3
:100AC0002F970FB6F894DEBF0FBECDBF8C836F8318
:100AD00049833987288748018FB7F894A090BF01D0
:100AE000B090C001C090C101D090C2018FBFE1148D
:100AF000F10421F484EBE82E82E0F82E2C81220F01
:100B00002E833981832F90E0432F41954D83132FFE
:100B1000312C212C1F869B838A8301E0C401B0E025
:100B2000A0E08A879B87AC87BD87AA81BB812A16F4
:100B30003B060CF01AC10093F301BC81B09315027F
:100B40001092F40110921602D701ED91FC910190E0
:100B5000F081E02D6F81C701099581E00E94680254
:100B60000E94CE002B013C018091ED0181116DC0EE
:100B70001E87113210F0B0E2BE870093ED010093A2
:100B8000EC012FEF2093EB011092EA018E8581504A
:100B90008093E9010093C8018091C8013E81832BB5
:100BA0008093C8018091C701813009F098C01092EC
:100BB000C7010E94CE002B013C018091C8018093A7
:100BC000BB008091EF019091F001A091F101B091F3
:100BD000F201892B8A2B8B2BA1F00E94CE00209151
:100BE000EF013091F0014091F1015091F20164194F
:100BF000750986099709261737074807590708F422
:100C000045C08091BC0083FDD8CF45EC4093BC002B
:100C10000E94CE002B013C018091ED01813009F44E
:100C200062C08091EA019E85891718F4A091EA01BB
:100C3000AE87E9ECF1E0A8E9B1E080E02E8582170B
:100C400051F191919D938F5FF9CF8091EF01909138
:100C5000F001A091F101B091F201892B8A2B8B2B2D
:100C600009F482CF0E94CE002091EF013091F00173
:100C70004091F1015091F2016419750986099709B3
:100C8000261737074807590708F06ECF8091EE0105
:100C90000E9447021E861092BD013E853093BC0122
:100CA000D701ED91FC910084F185E02DC7010995F4
:100CB000892B09F453C081149104B9F5D701ED9142
:100CC000FC910284F385E02DC7010995E885F9853B
:100CD000BF85EB0FF11D8083BF5FBF87E1CF55EE6E
:100CE0005093BC0095CF8091EF019091F001A091BD
:100CF000F101B091F201892B8A2B8B2B09F48CCF57
:100D00000E94CE002091EF013091F0014091F1015D
:100D10005091F2016419750986099709261737075A
:100D20004807590708F078CFB1CF2FB7F8948091D2
:100D3000BF019091C001A091C101B091C2012FBF2C
:100D40008A199B09AC09BD092A853B854C855D85BF
:100D500082179307A407B50708F4B0CF4A815B81D7
:100D6000240E351E5D81150FE0CE81149104E1F053
:100D70002FB7F8948091BF019091C001A091C1015B
:100D8000B091C2012FBF8A199B09AC09BD09B12CD2
:100D9000A12C88159905AA05BB0530F08F8599818E
:100DA000891710F4AFEFAF878F852F960FB6F894A1
:100DB000DEBF0FBECDBFDF91CF911F910F91FF908E
:100DC000EF90DF90CF90BF90AF909F908F907F90EB
:100DD0006F905F904F903F902F9008957F928F92E9
:100DE0009F92AF92BF92CF92DF92EF92FF920F93BA
:100DF0001F93CF93DF9300D0CDB7DEB7A82E962EEA
:100E0000742E822EB02E08EE13E09E012E5F3F4F0F
:100E100041E00E944C058823C1F1872D8819990B68
:100E2000AC014F5F5F4F81E090E002C0880F991FD7
:100E30008A94E2F70197042E01C0880F0A94EAF71A
:100E40002B2D01C0220F4A95EAF7B82EB0949A8153
:100E5000B92282238B298A8389839701AE014F5F50
:100E60005F4F692D8A2D0E9458030F900F90DF91DC
:100E7000CF911F910F91FF90EF90DF90CF90BF9097
:100E8000AF909F908F907F90089580E0EECF85ED9A
:100E90008093BC008091EF019091F001A091F1014D
:100EA000B091F2010796A11DB11D23E0B695A7955B
:100EB000979587952A95D1F72091BC0024FD03C012
:100EC0001092ED0108954091EF015091F001609171
:100ED000F1017091F201452B462B472B69F30097E6
:100EE000A105B10541F02AE22A95F1F700C001976A
:100EF000A109B109E1CF8091EE010C9447021F9244
:100F00000F920FB60F9211242F933F938F939F93BD
:100F1000AF93BF938091BF019091C001A091C10197
:100F2000B091C2013091BE0123E0230F2D3758F557
:100F30000196A11DB11D2093BE018093BF01909326
:100F4000C001A093C101B093C2018091C3019091EF
:100F5000C401A091C501B091C6010196A11DB11DAA
:100F60008093C3019093C401A093C501B093C601BF
:100F7000BF91AF919F918F913F912F910F900FBE95
:100F80000F901F90189526E8230F0296A11DB11D02
:100F9000D2CF1F920F920FB60F9211242F933F932F
:100FA0004F935F936F937F938F939F93AF93BF9371
:100FB000EF93FF9387E192E00E947301FF91EF911D
:100FC000BF91AF919F918F917F916F915F914F9161
:100FD0003F912F910F900FBE0F901F9018951F9269
:100FE0000F920FB60F9211242F938F939F93EF932D
:100FF000FF93E0912702F09128028081E0912D0279
:10100000F0912E0282FD1BC09081809130028F5F93
:101010008F7320913102821741F0E0913002F0E0AD
:10102000E95EFD4F958F80933002FF91EF919F9184
:101030008F912F910F900FBE0F901F901895808168
:10104000F4CF1F920F920FB60F9211242F933F935C
:101050004F935F936F937F938F939F93AF93BF93C0
:10106000EF93FF938091B900887F803609F44AC0DE
:10107000F0F5883209F4A7C018F5803109F49BC057
:10108000B8F4882309F4F9C0883009F494C0FF91BA
:10109000EF91BF91AF919F918F917F916F915F91F0
:1010A0004F913F912F910F900FBE0F901F90189569
:1010B000883109F488C0803251F78093EB0114C065
:1010C000803409F49DC040F48033B9F38833F9F6D5
:1010D0008093EB0185ECB0C0803509F485C088357C
:1010E00009F496C0883499F60E944707D0CF883912
:1010F00009F48CC038F5883729F050F4883611F09F
:10110000803729F683E08093ED011092970157C054
:10111000883809F47BC0803919F0803809F0B7CFDE
:1011200080919701803208F071C0E091970181E0D1
:101130008E0F809397018091BB00F0E0E958FE4F3D
:1011400080833DC0803B39F0E0F4803A09F479C0F7
:10115000883A09F09CCF84E08093ED0110927601EB
:1011600010927501E091BA01F091BB01099580914F
:10117000750181110FC081E08093750110925501B6
:1011800009C0803C09F4A6CF883C09F4A3CF883B72
:1011900009F07DCFE091760181E08E0F809376019A
:1011A000F0E0EB5AFE4F80818093BB009091760176
:1011B0008091750129C08091C8018093BB0085ECA6
:1011C0008093BC0064CF9091EA018091E901981767
:1011D00058F5E091EA0181E08E0F8093EA01F0E09A
:1011E000E753FE4F8081E9CFE091EA0181E08E0F65
:1011F0008093EA018091BB00F0E0E753FE4F8083CB
:101200009091EA018091E9019817C8F285E8D8CF5A
:10121000E091EA0181E08E0F8093EA018091BB00AA
:10122000F0E0E753FE4F80838091EC0181115CCFA9
:1012300081E08093C70184EA8093BC001092ED01A5
:1012400026CF85EC8093BC001092ED018091970130
:10125000803230F4E0919701F0E0E958FE4F1082BF
:101260006091970170E0E091B801F091B90187E7D2
:1012700091E00995109297010ACF1092EB0134CFBB
:10128000E7E1F2E01382128288EE93E0A0E0B0E0A2
:1012900084839583A683B7832AE031E0318320835A
:1012A00025EC30E03587248724EC30E0378726872B
:1012B00020EC30E0318B208B21EC30E0338B228B23
:1012C00022EC30E0358B248B26EC30E0378B268BFC
:1012D000118E128E138E148EE4EBF2E013821282C2
:1012E00084839583A683B7838CE191E09183808387
:1012F000E0ECF2E088E680831282118288EF9AE2C5
:10130000A0E0B0E0818B928BA38BB48B0895CF9338
:10131000DF93CDB7DEB7E1970FB6F894DEBF0FBE0F
:10132000CDBF789484B5826084BD84B5816084BD6E
:1013300085B5826085BD85B5816085BD80916E0073
:10134000816080936E0010928100809181008260A4
:1013500080938100809181008160809381008091E1
:1013600080008160809380008091B10084608093D0
:10137000B1008091B00081608093B00080917A00CC
:10138000846080937A0080917A00826080937A00F2
:1013900080917A00816080937A0080917A008068E1
:1013A00080937A001092C100E0912702F091280208
:1013B00082E08083E0912302F09124021082E09188
:1013C0002502F091260280E1808310922F02E091A5
:1013D0002B02F0912C0286E08083E0912902F091AB
:1013E0002A02808180618083E0912902F0912A02A3
:1013F000808188608083E0912902F0912A028081B7
:1014000080688083E0912902F0912A0280818F7D9B
:1014100080831092BD011092BC011092F4011092D1
:1014200016020E94290283EF90E09093BB01809303
:10143000BA0184EF90E09093B9018093B801E090F5
:10144000C102F090C20201E023E042E06BE680912D
:10145000C0020E94EE0680E090E0AAEFBBE380931A
:10146000D9029093DA02A093DB02B093DC02E09001
:10147000C102F090C20200E022E044E06BE1809102
:10148000C0020E94EE0680E090E0A0E8B8E38093FE
:10149000D5029093D602A093D702B093D802E090E1
:1014A000C102F090C20222E044E06CE18091C002EF
:1014B0000E94EE06A090C102B090C202D090C0027D
:1014C000750108EE13E09E012F5F3F4F41E06BE690
:1014D0008D2D0E944C0589818F7B898389AB950175
:1014E000AE014F5C5F4F6BE68D2D0E945803E0907C
:1014F000C102F090C2029E012F5F3F4F41E065E7BD
:101500008091C0020E944C05882339F089818E7732
:1015100090E0959587958093C3028091C3028433B0
:1015200009F4EFC08C3009F4ECC08A3309F4E9C047
:1015300081E491E00E94180490E0692E90E0792EF9
:10154000E090C102F090C20208EE13E023EC32E01A
:101550004EE06BE38091C0020E944C050091C302F3
:101560001091C402102701271027E090C502F090C7
:10157000C602FE24EF24FE24C090C702D090C80209
:10158000DC24CD24DC24A090CB02B090CC02BA2481
:10159000AB24BA248090CD029090CE029824892466
:1015A00098246091CF027091D00276276727762722
:1015B000CE0101960E948D04B401CE0107960E94CF
:1015C0008D04B501CE010D960E948D04B601CE01A9
:1015D00043960E948D04B701CE0149960E948D0466
:1015E000B801CE0185960E948D04BE016B5D7F4FD0
:1015F000CE014F960E941205CE014F960E946904BB
:10160000BE01675E7F4F0E94D7040E946904BE013D
:101610006D5E7F4F0E94D7040E946904BE01635F24
:101620007F4F0E94D7040E946904BE01695F7F4F0B
:101630000E94D7040E946904BE016F5F7F4F0E9421
:10164000D704BC01CE018B960E941205CE014F96A5
:101650000E940A05CE0185960E940A05CE01499690
:101660000E940A05CE0143960E940A05CE010D96FE
:101670000E940A05CE0107960E940A05CE01019636
:101680000E940A054FA558A96BA57CA587E192E0A9
:101690000E94F5000E9410040E94CE006B017C01A4
:1016A00084EF882E99249394A12CB12C0E94CE0013
:1016B0006C197D098E099F09683E7340810591056B
:1016C000A8F321E0821A9108A108B10888EEC80E9B
:1016D00083E0D81EE11CF11C81149104A104B10423
:1016E00029F7CE018B960E940A056114710409F452
:1016F00027CF0E945F01882309F422CF0E940000B7
:101700001FCF8FE291E016CFBB274A3031F49923E7
:1017100022F4BDE2909581959F4F0C94900BBB27CE
:10172000FB015527AA27880F991FAA1FA41710F09D
:10173000A41B83955051B9F7A05DAA3308F0A95DA9
:10174000A193009779F7B111B1931192CB010C9449
:10175000A90BDC01FC01672F71917723E1F7329728
:1017600004C07C916D9370836291AE17BF07C8F37C
:1017700008952F923F924F925F926F927F928F9235
:101780009F92AF92BF92CF92DF92EF92FF920F9310
:101790001F93CF93DF93CDB7DEB7CA1BDB0B0FB61A
:1017A000F894DEBF0FBECDBF09942A8839884888D7
:1017B0005F846E847D848C849B84AA84B984C8846D
:1017C000DF80EE80FD800C811B81AA81B981CE0F64
:1017D000D11D0FB6F894DEBF0FBECDBFED01089549
:1017E000EE0FFF1F0590F491E02D09940F931F93C6
:1017F000CF93DF938230910510F482E090E0E09186
:10180000EB02F091EC0230E020E0B0E0A0E0309795
:1018100099F42115310509F44AC0281B390B2430ED
:101820003105D8F58A819B816115710589F1FB012C
:1018300093838283FE0111C0408151810281138113
:1018400048175907E0F04817590799F4109761F0C5
:1018500012960C93129713961C933296CF01DF9138
:10186000CF911F910F9108950093EB021093EC021A
:10187000F4CF2115310551F04217530738F0A90173
:10188000DB019A01BD01DF01F801C1CFEF01F9CF02
:101890009093EC028093EB02CDCFFE01E20FF31F99
:1018A000819391932250310939832883D7CF209196
:1018B000E9023091EA02232B41F420910201309198
:1018C00003013093EA022093E90220910001309154
:1018D00001012115310541F42DB73EB740910401B6
:1018E00050910501241B350BE091E902F091EA02C9
:1018F000E217F307A0F42E1B3F0B2817390778F0E7
:10190000AC014E5F5F4F2417350748F04E0F5F1F45
:101910005093EA024093E902819391939FCFF0E0C4
:10192000E0E09CCFCF93DF930097E9F0FC01329782
:1019300013821282A091EB02B091EC02ED0130E033
:1019400020E01097A1F420813181820F931F209114
:10195000E9023091EA022817390709F061C0F093D3
:10196000EA02E093E902DF91CF910895EA01CE17F0
:10197000DF07E8F54A815B819E0141155105B1F70A
:10198000E901FB83EA8349915991C40FD51FEC17F4
:10199000FD0761F4808191810296840F951FE90112
:1019A00099838883828193819B838A83F0E0E0E03E
:1019B00012968D919C9113970097B9F52D913C91BA
:1019C0001197CD010296820F931F2091E902309169
:1019D000EA022817390739F6309751F51092EC02D0
:1019E0001092EB02B093EA02A093E902BCCFD3833A
:1019F000C28340815181840F951FC817D90761F4B4
:101A00004E5F5F4F88819981480F591F51834083F2
:101A10008A819B81938382832115310509F0B0CFA0
:101A2000F093EC02E093EB029ECFFD01DC01C0CF0E
:101A300013821282D7CFB0E0A0E0E1E2FDE00C9487
:101A4000BB0B8C01009751F4CB010E94F60B8C016B
:101A5000C801CDB7DEB7E0E10C94D70BFC01E60F6F
:101A6000F71F9C0122503109E217F30708F49DC0CB
:101A7000D901CD91DC911197C617D70798F0C530E1
:101A8000D10530F3CE0104978617970708F3C61BDC
:101A9000D70B2297C193D1936D937C93CF010E9472
:101AA000920CD6CF5B01AC1ABD0A4C018C0E9D1E68
:101AB000A091EB02B091EC02512C412CF12CE12CC5
:101AC000109731F58091E9029091EA028815990505
:101AD00009F05CC04616570608F058C08091000116
:101AE00090910101009741F48DB79EB74091040198
:101AF00050910501841B950BE817F90708F055C0B4
:101B0000F093EA02E093E902F90171836083A0CFC8
:101B10008D919C91119712966C90129713967C90D0
:101B20001397A815B90559F56C0142E0C40ED11CF4
:101B3000CA14DB0420F1AC014A195B09DA011296E0
:101B4000159780F06282738251834083D9016D932F
:101B50007C93E114F10471F0D7011396FC93EE939A
:101B6000129776CF22968C0F9D1FF9019183808367
:101B7000F301EFCFF093EC02E093EB0269CF48164C
:101B8000590608F42C017D01D3019ACFCB010E94A4
:101B9000F60B7C01009749F0AE01B8010E94D80D08
:101BA000C8010E94920C870153CF10E000E050CF93
:101BB000FB01DC0102C001900D9241505040D8F76A
:101BC0000895FB01DC0101900D920020E1F70895DA
:041BD000F894FFCFB7
:101BD4000000ED028000000000009501F5002201E4
:101BE400E20153013101450100000000DE03B103AD
:101BF4000D048703AA03970388030D0A002C004DE4
:101C040050553630353020636F6E6E65637465648D
:101C140000436F6E6E656374696F6E206661696CF4
:041C240065640000F3
:00000001FF
